:020000043000CA
:10000000930000009301000013020000930200001F
:100010001303000093030000130400009304000086
:10002000130500009305000013060000930600006E
:100030001307000093070000130800009308000056
:100040001309000093090000130A0000930A00003E
:10005000130B0000930B0000130C0000930C000026
:10006000130D0000930D0000130E0000930E00000E
:10007000130F0000930F0000170500001305C5655E
:10008000970500E0938505F8170600E0130686F74C
:1000900063DCC5008326050023A0D50013054500B9
:1000A00093854500E3C8C5FE170500E0130585F5F7
:1000B000970500E09385C5F56358B500232005003A
:1000C00013054500E34CB5FEEF00401C6F00000037
:1000D000130101FE232E8100130401022326A4FE36
:1000E00013000000B707102083C7070093F7F70F2E
:1000F00093F72700E358F0FEB70710201387870017
:100100008327C4FE93873700034707001377F70F51
:100110002380E70013000000B707102083C7070003
:1001200093F7F70F93F72700E358F0FEB707102077
:10013000138787008327C4FE9387270003470700A0
:100140001377F70F2380E70013000000B707102094
:1001500083C7070093F7F70F93F72700E358F0FEE4
:10016000B7071020138787008327C4FE93871700E3
:10017000034707001377F70F2380E7001300000001
:10018000B707102083C7070093F7F70F93F72700EF
:10019000E358F0FEB70710209387870083C7070056
:1001A00013F7F70F8327C4FE2380E7001300000036
:1001B0000324C1011301010267800000130101FE45
:1001C000232E8100130401022326A4FE1300000045
:1001D000B707102083C7070093F7F70F93F71700AF
:1001E000E358F0FEB7071020938787000327C4FE6B
:1001F000034737002380E70013000000B7071020F3
:1002000083C7070093F7F70F93F71700E358F0FE43
:10021000B7071020938787000327C4FE03472700F2
:100220002380E70013000000B707102083C70700F2
:1002300093F7F70F93F71700E358F0FEB707102076
:10024000938787000327C4FE034717002380E70036
:1002500013000000B707102083C7070093F7F70FBC
:1002600093F71700E358F0FEB70710209387870035
:100270000327C4FE034707002380E70013000000A4
:100280000324C1011301010267800000130101FE74
:10029000232E1100232C810013040102B707202014
:1002A000938747001307C03023A0E700B70710204B
:1002B0009387C7001307500323A0E700B707002068
:1002C000130710002380E7009307C4FE138507007F
:1002D000EFF01FE0B70730200327C4FE23A0E7009C
:1002E000B7070020130720002380E7009307C4FE10
:1002F00013850700EFF0DFDDB70730209387470055
:100300000327C4FE23A0E700B7070020130730002F
:100310002380E7009307C4FE13850700EFF05FDB3F
:10032000B7073020938787000327C4FE23A0E70088
:10033000B7070020130740002380E7009307C4FE9F
:1003400013850700EFF0DFD8B70730209387C70089
:100350000327C4FE23A0E700B707002013075000BF
:100360002380E7009307C4FE13850700EFF05FD6F4
:10037000B7073020938707010327C4FE23A0E700B7
:10038000B7070020130760002380E7009307C4FE2F
:1003900013850700EFF0DFD3B707302093874701BD
:1003A0000327C4FE23A0E700B7070020130770004F
:1003B0002380E7009307C4FE13850700EFF05FD1A9
:1003C000B7073020938787010327C4FE23A0E700E7
:1003D000B7070020130780002380E7009307C4FEBF
:1003E00013850700EFF0DFCEB70730209387C701F2
:1003F0000327C4FE23A0E700B707002013079000DF
:100400002380E7009307C4FE13850700EFF05FCC5D
:10041000B7073020938707020327C4FE23A0E70015
:10042000B70700201307A0002380E7009307C4FE4E
:1004300013850700EFF0DFC9B70730209387470225
:100440000327C4FE23A0E700B70700201307B0006E
:100450002380E7009307C4FE13850700EFF05FC712
:10046000B7073020938787020327C4FE23A0E70045
:10047000B70700201307C0002380E7009307C4FEDE
:1004800013850700EFF0DFC4B70730209387C7025A
:100490000327C4FE23A0E700B70700201307D000FE
:1004A0002380E7009307C4FE13850700EFF05FC2C7
:1004B000B7073020938707030327C4FE23A0E70074
:1004C000B70700201307E0002380E7009307C4FE6E
:1004D00013850700EFF0DFBFB7073020938747038E
:1004E0000327C4FE23A0E700B70700201307F0008E
:1004F0002380E7009307C4FE13850700EFF05FBD7C
:10050000B7073020938787030327C4FE23A0E700A3
:10051000B7070020130700012380E7009307C4FEFC
:1005200013850700EFF0DFBAB70730209387C703C2
:100530000327C4FE23A0E700B7070020130710011C
:100540002380E7009307C4FE13850700EFF05FB830
:10055000B7073020938707040327C4FE23A0E700D2
:10056000B7070020130720012380E7009307C4FE8C
:1005700013850700EFF0DFB5B707302093874704F6
:100580000327C4FE23A0E700B707002013073001AC
:100590002380E70013000000B707102083C707007F
:1005A00093F7F70F93F72700E358F0FEB7071020F3
:1005B0009387870083C7070093F7F70F2326F4FE7E
:1005C0000327C4FEB7073020938787041377F70FFC
:1005D0002380E700B70730209387C70483A707006D
:1005E0002326F4FE9307C4FE13850700EFF01FBD1A
:1005F000B70730209387070583A707002326F4FE5B
:100600009307C4FE13850700EFF05FBBB7073020E8
:100610009387470583A707002326F4FE9307C4FEAC
:1006200013850700EFF09FB9B70730209387870540
:1006300083A707002326F4FE9307C4FE1385070053
:10064000EFF0DFB7B70730209387C70583A7070010
:100650002326F4FE9307C4FE13850700EFF01FB6B0
:10066000B70730209387070683A707002326F4FEE9
:100670009307C4FE13850700EFF05FB4B70730207F
:100680009387470683A707002326F4FE9307C4FE3B
:1006900013850700EFF09FB2B707302093878706D6
:1006A00083A707002326F4FE9307C4FE13850700E3
:1006B000EFF0DFB0B70730209387C70683A70700A6
:1006C0002326F4FE9307C4FE13850700EFF01FAF47
:0406D0006FF0DFBE2A
:0400000530000000C7
:00000001FF
