:10000000930000009301000013020000930200001F
:100010001303000093030000130400009304000086
:10002000130500009305000013060000930600006E
:100030001307000093070000130800009308000056
:100040001309000093090000130A0000930A00003E
:10005000130B0000930B0000130C0000930C000026
:10006000130D0000930D0000130E0000930E00000E
:10007000130F0000930F0000170500001305054043
:1000800097050010938505F817060010130686F7EC
:1000900063DCC5008326050023A0D50013054500B9
:1000A00093854500E3C8C5FE17050010130585F5C7
:1000B00097050010938505F56358B50023200500CA
:1000C00013054500E34CB5FEEF0040076F0000004C
:1000D000130101FE232E8100130401022326A4FE36
:1000E0006F00C00313000000B707102083C707008C
:1000F00093F7F70F93F71700E38807FEB707102071
:10010000938787000327C4FE034707002380E70087
:100110008327C4FE938717002326F4FE8327C4FE9B
:1001200083C70700E39007FC1300000013000000E2
:100130000324C1011301010267800000130101FDC6
:10014000232611022324810213040103B707202070
:10015000938747001307C03023A0E700B70710209C
:100160009387C7001307500323A0E700B7070020B9
:10017000130710002380E700B707202083A707009C
:100180009387873E2326F4FEA30504FEB7071020BD
:1001900083C7070093F7F70F93F727006344F00C2A
:1001A000B70700209387470083C7070093F7F70F2F
:1001B00093F7170063860728B707202083A7070057
:1001C0000327C4FEE374F7FCB707202083A70700CA
:1001D0009387873E2326F4FE8347B4FE638207029B
:1001E000B707002083C7070013F7F70FB7070020F2
:1001F000135717001377F70F2380E7006F000002F3
:10020000B707002083C7070013F7F70FB7070020D1
:10021000131717001377F70F2380E700B7070020A5
:1002200083C7070013F7F70F930700086316F7005B
:1002300093071000A305F4FEB707002083C707004B
:1002400013F7F70F930710006314F700A30504FEDC
:10025000B707102093878700130750012380E7001A
:100260006FF0DFF213000000B70700302322F4FE26
:1002700093071000A300F4FE13000000B70710203E
:1002800083C7070093F7F70F93F72700E38807FE6C
:10029000B70710209387870083C707002300F4FE69
:1002A000034704FE930740006300F71A034704FE68
:1002B00093071000630CF700B7071020938787009F
:1002C000130750012380E7006F0040171300000060
:1002D000B707102083C7070093F7F70F93F727009E
:1002E000E38807FEB70710209387870083C70700BE
:1002F000A30FF4FC13000000B707102083C707000A
:1003000093F7F70F93F72700E38807FEB70710204E
:100310009387870083C70700230FF4FC230104FEA3
:100320006F00800413000000B707102083C7070088
:1003300093F7F70F93F72700E38807FEB70710201E
:1003400013878700834724FE832644FEB387F60085
:10035000034707001377F70F2380E700834724FE46
:10036000938717002301F4FE830724FEE3DC07FADA
:1003700013000000B707102083C7070093F7F70F9B
:1003800093F72700E38807FEB707102093878700BD
:1003900083C70700A30EF4FCA30104FE230104FE9F
:1003A0006F00C002834724FE032744FEB307F70013
:1003B00003C70700834734FEB307F700A301F4FE29
:1003C000834724FE938717002301F4FE830724FE4E
:1003D000E3DA07FC0347D4FD834734FE6312F702D8
:1003E0000347F4FD834714FE631CF7008347F4FDC5
:1003F0001307F00F3307F7408347E4FD630CF70062
:10040000B707102093878700130750012380E70068
:100410006F00C002832744FE938707082322F4FE5F
:10042000834714FE93871700A300F4FEB70710203C
:1004300093878700130760002380E7006FF0DFE3F6
:10044000130000006F00800013000000B7070030A9
:10045000E7800700B70700201307F0FF2380E700BD
:1004600037210010130000008320C1020324810201
:08047000130101036780000085
:00000001FF
